{
  "contractName": "UserController",
  "abi": [
    {
      "constant": false,
      "inputs": [
        {
          "name": "_managerAddr",
          "type": "address"
        }
      ],
      "name": "setManagerAddr",
      "outputs": [],
      "payable": false,
      "stateMutability": "nonpayable",
      "type": "function"
    },
    {
      "constant": true,
      "inputs": [],
      "name": "ownerAddr",
      "outputs": [
        {
          "name": "",
          "type": "address"
        }
      ],
      "payable": false,
      "stateMutability": "view",
      "type": "function"
    },
    {
      "constant": false,
      "inputs": [
        {
          "name": "_newOwner",
          "type": "address"
        }
      ],
      "name": "transferOwnership",
      "outputs": [],
      "payable": false,
      "stateMutability": "nonpayable",
      "type": "function"
    },
    {
      "constant": false,
      "inputs": [
        {
          "name": "_username",
          "type": "bytes32"
        }
      ],
      "name": "createUser",
      "outputs": [
        {
          "name": "",
          "type": "uint256"
        }
      ],
      "payable": false,
      "stateMutability": "nonpayable",
      "type": "function"
    }
  ],
  "bytecode": "0x6080604052336000806101000a81548173ffffffffffffffffffffffffffffffffffffffff021916908373ffffffffffffffffffffffffffffffffffffffff16021790555061045f806100536000396000f3fe608060405234801561001057600080fd5b506004361061004c5760003560e01c80637978b231146100515780639c675eaa14610095578063abf7bfd8146100df578063f2fde38b14610121575b600080fd5b6100936004803603602081101561006757600080fd5b81019080803573ffffffffffffffffffffffffffffffffffffffff169060200190929190505050610165565b005b61009d610202565b604051808273ffffffffffffffffffffffffffffffffffffffff1673ffffffffffffffffffffffffffffffffffffffff16815260200191505060405180910390f35b61010b600480360360208110156100f557600080fd5b8101908080359060200190929190505050610227565b6040518082815260200191505060405180910390f35b6101636004803603602081101561013757600080fd5b81019080803573ffffffffffffffffffffffffffffffffffffffff1690602001909291905050506103ad565b005b6000809054906101000a900473ffffffffffffffffffffffffffffffffffffffff1673ffffffffffffffffffffffffffffffffffffffff163373ffffffffffffffffffffffffffffffffffffffff16146101be57600080fd5b80600160006101000a81548173ffffffffffffffffffffffffffffffffffffffff021916908373ffffffffffffffffffffffffffffffffffffffff16021790555050565b6000809054906101000a900473ffffffffffffffffffffffffffffffffffffffff1681565b600080600160009054906101000a900473ffffffffffffffffffffffffffffffffffffffff16905060008173ffffffffffffffffffffffffffffffffffffffff1663bf40fac16040518163ffffffff1660e01b815260040180806020018281038252600b8152602001807f5573657253746f7261676500000000000000000000000000000000000000000081525060200191505060206040518083038186803b1580156102d357600080fd5b505afa1580156102e7573d6000803e3d6000fd5b505050506040513d60208110156102fd57600080fd5b8101908080519060200190929190505050905060008190508073ffffffffffffffffffffffffffffffffffffffff1663abf7bfd8866040518263ffffffff1660e01b815260040180828152602001915050602060405180830381600087803b15801561036857600080fd5b505af115801561037c573d6000803e3d6000fd5b505050506040513d602081101561039257600080fd5b81019080805190602001909291905050509350505050919050565b600073ffffffffffffffffffffffffffffffffffffffff168173ffffffffffffffffffffffffffffffffffffffff1614156103e757600080fd5b806000806101000a81548173ffffffffffffffffffffffffffffffffffffffff021916908373ffffffffffffffffffffffffffffffffffffffff1602179055505056fea265627a7a7230582031c39790b3eae1c45fb78e498f32d8cf4972df75177eaf6aa41c6bfd00e50ebd64736f6c634300050a0032",
  "source": "pragma solidity ^0.5.10;\n\nimport '../helpers/BaseController.sol';\nimport '../ContractManager.sol';\nimport './UserStorage.sol';\n\ncontract UserController is BaseController {\n\n  function createUser(bytes32 _username) public returns(uint) {\n    ContractManager _manager = ContractManager(managerAddr);\n\n    address _userStorageAddr = _manager.getAddress(\"UserStorage\");\n    UserStorage _userStorage = UserStorage(_userStorageAddr);\n\n    return _userStorage.createUser(_username);\n  }\n\n}\n",
  "sourcePath": "/Users/tomdickson/Dev/web3/decentralised_twitter/contracts/users/UserController.sol",
  "compiler": {
    "name": "solc",
    "version": "0.5.10+commit.5a6ea5b1.Emscripten.clang"
  },
  "schemaVersion": "3.4.3",
  "updatedAt": "2021-09-23T17:30:14.731Z",
  "networkType": "ethereum",
  "devdoc": {
    "methods": {}
  },
  "userdoc": {
    "methods": {}
  }
}